:020000040000FA
:1000000000700020710500008305000085050000D8
:1000100087050000890500008B0500000000000036
:10002000000000000000000000000000B10400001B
:100030008F050000000000000D050000C90500004C
:100040009505000095050000950500009505000048
:100050009505000095050000950500009505000038
:100060009505000095050000950500009505000028
:100070009505000095050000950500009505000018
:1003F000950500009505000095050000FFFFFFFF33
:020000040000FA
:10040000FFFFFFFFFFFFFFFFFFFFFFFFFE7FFFFF7D
:020000040000FA
:1004100000F002F800F03CF80AA090E8000C8244DA
:100420008344AAF10107DA4501D100F031F8AFF2B7
:10043000090EBAE80F0013F0010F18BFFB1A43F0C2
:1004400001031847F404000014050000103A24BF0B
:1004500078C878C1FAD8520724BF30C830C144BF29
:1004600004680C607047000000230024002500266B
:10047000103A28BF78C1FBD8520728BF30C148BF07
:100480000B6070471FB500F04FFA1FBD10B510BDCF
:10049000DFF80CD0FFF7F6FF00F0FAF800F084F870
:1004A0000070002003B4FFF7F1FF03BC00F086F8F2
:1004B0002C4B19680868B0E8F04F80F30988BFF347
:1004C0006F8F4FF0000080F311887047000000002C
:1004D00008480068006880F308884FF0000080F347
:1004E000148862B661B6BFF34F8FBFF36F8F00DF22
:1004F00000BF00BF08ED00E0DFF80C00016841F428
:1005000070010160704700BF88ED00E0EFF30980E3
:10051000BFF36F8F134B1A681EF0100F08BF20ED4A
:10052000108A20E9F04F106009B44FF0500080F3BA
:100530001188BFF34F8FBFF36F8F00F0E7F84FF0D4
:10054000000080F3118809BC19680868B0E8F04F12
:100550001EF0100F08BFB0EC108A80F30988BFF3BB
:100560006F8F70470080FF1FEFF30580704700001A
:10057000094872B6094880470948804762B6094869
:100580000047FEE7FEE7FEE7FEE7FEE7FEE7FEE7E1
:10059000FEE7FEE7FEE7000000040000FD050000A6
:1005A0003D0600001104000010B50446AFF30080C2
:1005B0002046BDE81040FFF775BF7047014918207D
:1005C000ABBEFEE72600020010B500BF502080F34E
:1005D0001188BFF34F8FBFF36F8F00BF00F0F8F8A3
:1005E00018B14FF080500449086000BF002080F32C
:1005F000118800BF10BD000004ED00E00B4800684A
:1006000040F47000094908600948006820F0804003
:10061000074908600748084948600846406842F2B0
:10062000201008604FF6FF708860704788ED00E08A
:1006300034EF00E020C528D90020054008B5104A55
:100640001268009200210F4A0F4B9A4213D00020EB
:1006500006E00D4A52F820200A4B43F82020401CA7
:100660000A4A084BD21AB0EB920FF2D31A465DF841
:1006700021301A6003E0044A5DF821301A6008BD99
:100680003409000000000000000000000080FF1F8F
:10069000002070470A490968096809B9012100E08A
:1006A000002121B14FF0FF31064A116006E00449F4
:1006B0000968C968C868034A41681160704700004A
:1006C0000480FF1F3080FF1F01460A69D1E9013015
:1006D0009860D1E9010358605068884201D1886868
:1006E0005060002008611068401E1060106870475C
:1006F0007047704742684A6093688B60936859609E
:100700009160086103685B1C0360704770B52B48FB
:10071000006818B101202A4908604DE000202849EE
:10072000086028480068046B4FF0A5352068B0F1D8
:10073000A53F0BD16068B0F1A53F07D1A068B0F12B
:10074000A53F03D1E068B0F1A53F05D01D48016881
:1007500034310068FFF7CCFF1B480068B0FA80F026
:10076000C0F11F0101EB8100184A52F8200008B1C6
:10077000012000E0002050B900BF502080F3118814
:10078000BFF34F8FBFF36F8F00BF00BFFEE701EBDA
:1007900081020E4B03EB820042685268426000F116
:1007A00008024368934202D142685268426042683C
:1007B000D268044B1A6000BF70BD00003880FF1F74
:1007C0002480FF1F0080FF1F1880FF1F3C80FF1F39
:1007D0002DE9F0414FF000084848006800287DD11D
:1007E00047480068451C4648056015BB45480068F9
:1007F000006808B9012000E0002050B900BF502077
:1008000080F31188BFF34F8FBFF36F8F00BF00BF1E
:10081000FEE73C4807683C4800683A4908603A48A7
:1008200007603A480068401C38490860FFF732FF0B
:1008300000BF3748006885423CD300BF314800689C
:10084000006808B9012000E0002020B14FF0FF301F
:100850002F4908602DE02B480068C068C4686668AE
:10086000B54202D22A48066023E0201DFFF72CFF84
:10087000A06A18B104F11800FFF726FF94F82C10B5
:100880000120884023490968084322490860E16A39
:1008900001EB8101204A02EB8100211DFFF72AFFB5
:1008A0001E49E06A0968C96A8842C7D34FF0010847
:1008B000C4E700BF19480068C06A00EB8000164911
:1008C00051F82000012801D94FF0010814480068B0
:1008D00008B9FFF70EFF1348006800E003E008B115
:1008E0004FF0010806E00E480068401C0C49086003
:1008F000FFF7FFFE4046BDE8F08100003880FF1F93
:100900001480FF1F0480FF1F0880FF1F2880FF1F27
:100910003080FF1F1880FF1F3C80FF1F0080FF1FDB
:100920002080FF1F2480FF1F4FF04070E1EE100A6F
:100930007047000008ED00E0580900000080FF1F2C
:100940003C0000004C040000940900003C80FF1FA4
:10095000C800000068040000000000000000000063
:100960000000000000000000000000000000000087
:100970000000000000000000000000000000000077
:100980000000000000000000000000000000000067
:040990000000000063
:0400000500000411E2
:00000001FF
