:020000040000FA
:10000000007000208D0500009F050000A105000084
:10001000A3050000A5050000A705000000000000E2
:10002000000000000000000000000000D5040000F7
:10003000AB0500000000000029050000A51300002A
:10004000B1050000B1050000B1050000B1050000D8
:10005000B1050000B1050000B1050000B1050000C8
:10006000B1050000B1050000B1050000B1050000B8
:10007000B1050000B1050000B1050000B1050000A8
:1003F000B1050000B1050000B1050000FFFFFFFFDF
:020000040000FA
:10040000FFFFFFFFFFFFFFFFFFFFFFFFFE7FFFFF7D
:020000040000FA
:1004100000F002F800F04EF80AA090E8000C8244C8
:100420008344AAF10107DA4501D100F043F8AFF2A5
:10043000090EBAE80F0013F0010F18BFFB1A43F0C2
:10044000010318477C270000AC270000103A24BFA6
:1004500078C878C1FAD8520724BF30C830C144BF29
:1004600004680C607047000000230024002500266B
:10047000103A28BF78C1FBD8520728BF30C148BF07
:100480000B607047642900F0DD80002070471FB5C5
:1004900002F088FB0348044900F02EFD00F036FA14
:1004A0001FBD0000180300201807002010B500F041
:1004B00096FA10BDDFF80CD0FFF7E9FF00F0E6FF79
:1004C00000F0ECFC0070002003B4FFF7EFFF03BC6A
:1004D00000F0A4FE2A4B19680868B0E8F04F80F3DA
:1004E0000988BFF36F8F4FF0000080F311887047C9
:1004F0000000000006480068006880F3088862B6C3
:1005000061B6BFF34F8FBFF36F8F00DF00BF00BF37
:1005100008ED00E0DFF80C00016841F470010160B3
:10052000704700BF88ED00E0EFF30980BFF36F8FE5
:10053000134B1A681EF0100F08BF20ED108A20E937
:10054000F04F106008B44FF0500080F31188BFF3F3
:100550004F8FBFF36F8F01F01DFE4FF0000080F34F
:10056000118808BC19680868B0E8F04F1EF0100F39
:1005700008BFB0EC108A80F30988BFF36F8F704713
:100580000C000020EFF3058070470000094872B6A8
:10059000094880470948804762B609480047FEE796
:1005A000FEE7FEE7FEE7FEE7FEE7FEE7FEE7FEE723
:1005B000FEE7000000040000D11300004514000015
:1005C000110400000FB4044910B503AA029800F00A
:1005D0001BF910BC5DF814FB100200202DE9F0415E
:1005E0000E460446002020622046E168884730B36A
:1005F000252805D0D4E901219047206A401CF2E764
:10060000E168204600278847050018D0A5F1410081
:10061000192802D820354FF4006732462946204673
:100620002760FFF72FFF40B1012804D0F61D26F008
:1006300007060836D8E7361DD6E72846DAE7206AE7
:10064000BDE8F0812DE9F0410646002410687529C7
:10065000314616A510D0AFF30080002802DA4042E0
:1006600013A507E031688A0701D512A502E0490702
:1006700004D511A5012401E0AFF3008000210A2276
:1006800006F1240709E0B0FBF2FCB0FBF2F302FB39
:100690001C00303078541846491C0028F3D12346FA
:1006A0002A463046BDE8F04100F055B80000000091
:1006B0002D0000002B00000020000000032A40F263
:1006C000308010F0030C00F0158011F8013BBCF1F4
:1006D000020F624498BF11F801CB00F8013B38BF0C
:1006E00011F8013BA2F1040298BF00F801CB38BF1A
:1006F00000F8013B11F0030300F09880083AC0F0C5
:10070000088051F8043B083A51F804CBA0E80810DF
:10071000F5E7121D5CBF51F8043B40F8043BAFF312
:100720000080D20724BF11F8013B11F801CB48BF6C
:1007300011F8012B24BF00F8013B00F801CB48BFA2
:1007400000F8012B704702F0FF0343EA032242EA5C
:10075000024200F09FB82DE9F0470D4699469246B7
:10076000044600F124080168880604D5E06921F0F8
:100770001001216000E00120A84201DD471B00E0DC
:100780000027A1697A1902EB0900081AA0612078F4
:10079000C00602D42046AFF30080002608E0D4E96A
:1007A00001211AF806009047206A401C761C20623E
:1007B0004E45F4DB2078C0060AD52046AFF3008012
:1007C00006E0D4E9012130209047206A401C2062D5
:1007D000381EA7F10107F4DC07E0D4E9012118F87D
:1007E00005009047206A401C2062281EA5F10105E3
:1007F000F3DC2046AFF300802078000602D502200B
:10080000BDE8F0870120FBE7074B70B50D467B4440
:1008100000F065F80446284600F074F810B14FF077
:10082000FF3070BD204670BD170C000010B5203A97
:10083000C0F00B80B1E81850203AA0E81850B1E899
:100840001850A0E81850BFF4F5AF5FEA027C24BF4F
:10085000B1E81850A0E8185044BF18C918C0BDE846
:1008600010405FEA827C24BF51F8043B40F8043B0F
:1008700008BF7047D20728BF31F8023B48BF11F8C4
:10088000012B28BF20F8023B48BF00F8012B70471E
:100890004FF000020429C0F0128010F0030C00F0A9
:1008A000D380CCF1040CBCF1020F18BF00F8012B6F
:1008B000A8BF20F8022BA1EB0C0100F0C5B85FEA3D
:1008C000C17C24BF00F8012B00F8012B48BF00F8C1
:1008D000012B704701694A1C02610878704700B516
:1008E0008FB0CDE901310021059105497944CDE969
:1008F000031011466846FFF771FE0FB000BD0000FF
:10090000E5FFFFFF007B00F08000704710B5424814
:10091000542100F097F84148542100F093F84048E2
:10092000542100F08FF83F493B483C4A3F4B086058
:100930003D490A603A491960531C0365481C10651B
:10094000012008653B48344A39A1784400F00AFA8E
:1009500020B9384878440A3800F0A9FA37482F4AB5
:1009600035A1784400F0FEF920B9344878440A38BB
:1009700000F09DFA32482A4A2FA1784400F0F2F99B
:1009800020B92F4878440A3800F091FA40232248D1
:10099000DC000021224600F0C1F920B1254878444E
:1009A000543800F084FA1D4822464023002100F00C
:1009B000B5F920B121487844543800F078FA184845
:1009C00022461023002100F0A9F9002806D01C4877
:1009D0007844BDE81040563800F069BA10BD1048A0
:1009E00070B5006D20F001040B4800F031FA0B489F
:1009F00000F02EFA0A4800F02BFA09E0206D20F0F2
:100A00000105204600F024FA204600F075F82C4637
:100A1000002CF3D170BD0000BC01002010020020AA
:100A20006402002080000020840000208800002054
:100A300072000000662200007700000052220000D1
:100A40003E2200004FF0000200B513469446964641
:100A5000203922BFA0E80C50A0E80C50B1F12001D1
:100A6000BFF4F7AF090728BFA0E80C5048BF0CC07F
:100A70005DF804EB890028BF40F8042B08BF7047DD
:100A800048BF20F8022B11F0804F18BF00F8012B4F
:100A900070470EB5CDE9000100F0A0FB0290694659
:100AA0000120ABBE0EBD08B5694600900220ABBE6A
:100AB00008BD1FB58DE8070069460520ABBE04B030
:100AC00010BD1FB58DE80F0069460620ABBEF6E7E6
:100AD00008B5694600900920ABBE08BD1CB5CDE93C
:100AE000000169460A20ABBE1CBD704708B56946C7
:100AF00000900C20ABBE08BD70B50446051F00F089
:100B0000DFF90068002C14BF446870BD002C18BFCA
:100B1000AC423CBF20466468F8D301680A18AA4278
:100B200018BF456003D12A68054611440160286852
:100B30004119A1421CBF6C6070BD61686960216889
:100B40000844286070BD2DE9F04705460C46C8688A
:100B500020F4201040F48000C860800602D50846CA
:100B600000F0FBFAE06841F282014FF0FF390140EA
:100B7000022903D0204600F099FAB5E000F42041A4
:100B8000B1F5004F0FD1C00306D56168E06A884215
:100B900000D80846606006E02069E0626060606935
:100BA000FFF7A4FFA061A0680022EEB200280DDAD2
:100BB000E1688B050AD4C043A06041F49030226004
:100BC000E0606068411C61600670A5E0E0689046E6
:100BD000226040F40050E060206968BB6069FFF764
:100BE00077FF012704F12405A0B1A08910F4407F0C
:100BF00008D0E06900F0AFF9206118B1E06840F476
:100C0000006016E0E7612561E06820F4407040F480
:100C100080600EE0E06900F09EF900282061F1D0CC
:100C2000E06840F4006010F4407FE06002D140F4DE
:100C30008070E06020696060E06825696FF0010AFB
:100C4000C1051FD56168E06A884200D80846411B8B
:100C500004D02246284600F033FAF0BBE0680102D7
:100C600003D5E562C4E9015854E0691CE1626160A2
:100C7000E16940F48030491EC4E9021030462E700C
:100C8000BDE8F087010202D500F480320AE0606816
:100C9000411C61600670E0680A2E40F48030E0601C
:100CA00006D00022E16A6068814203D90B4602E067
:100CB0000122F7E70346A7895B1B7F0503D4E76999
:100CC0009F4200DDE2B1814200D80146E5620F1A81
:100CD000C4E90158002B09DD00E005E02246194671
:100CE000284600F0EDF908B14846C9E747B1A069C8
:100CF000E5626560C01BA061E06840F01000E06044
:100D0000E068000208D56168A069E562491B0844F3
:100D10006560A0615046B3E73046B1E770B5C4687E
:100D2000A50713D0650211D4B2F5807F09D0B2F5C2
:100D3000007F06D0B2F5806F08D1012300F12401B5
:100D400006E05D1E6FF07F46B54201D3012070BD05
:100D50000161C361416024F470611143C1600020EE
:100D600070BD00002DE9F0410C46074616461046BE
:100D700000F06EF82078611C61280AD0722802D039
:100D800077283CD102E00125002405E00225042457
:100D900002E0082448F2020511F8010B2B2806D0C6
:100DA000622809D011F8010C74280AD00BE045F034
:100DB000030544F00204EFE745F0040544F00104A4
:100DC000EAE744F0100438462146FFF762FE411C72
:100DD00015D00021316171604FF40071F560F1614F
:100DE0007061200704D530460222002100F0E2F8AD
:100DF000306D40F0010030653046BDE8F0810020E4
:100E0000FBE72DE9F0410D460646104C206DC10769
:100E100004D0410804D020F00104F7E722460EE098
:100E2000542000F098F807000ED0206D47F0010123
:100E30000843542120653846FFF704FE3A46294608
:100E40003046BDE8F0418DE70020D6E7BC01002028
:100E50002DE9F04704464FF000094FF0FF37C56811
:100E6000D4E90486A80707D0204600F053F930469D
:100E7000FFF719FE002802DA3846BDE8F08728059A
:100E800002D54046FFF738FE4C212046FFF7DAFD39
:100E9000206D20F0010020654846EEE710B50446BD
:100EA000AFF300802046BDE81040FFF70DBB10B542
:100EB00000F07AF9BDE8104000F070B9704700000A
:100EC00000487047C0020020704770477047704765
:100ED00038B504460A4600206946AFF30080002872
:100EE00008BF38BD02460099204600F0A4F9012051
:100EF00038BD012000F0F3B9F8B5AFF30080054626
:100F000000200C46102000BF0646A819A0420DD9AB
:100F1000324669460020AFF30080070008BF00F0AA
:100F2000DEF90098A04218BF0546C419FFF7C8FFB4
:100F300005600746F01D20F007004619284600F01E
:100F400073F9B44208BFF8BDA21B31463868BDE84A
:100F5000F84000F070B970B50646FFF7B1FF0568BC
:100F600006F10B0020F00704B4429CBF002070BDC6
:100F70002B466A68BAB11068A04210D304F1080188
:100F800088423CBF5068586007D3516810194160CF
:100F90001168091B016058601460101D70BD134674
:100FA0005268002AE7D121462846FFF791FF002822
:100FB000DED170BD2DE9F041044616460D46476965
:100FC000007B80072ED03846FFF782FD50BB3EB332
:100FD000012E02D0022E25D104E0204600F045F972
:100FE00005441DE03846FFF781FDE168002841F027
:100FF0001001E16005DA204600F058F80120BDE854
:10100000F081C9030BD56268E16A914200D81146AC
:10101000A26911442269891A814200DD084605440B
:10102000002D01DA0220EAE7E16A6068E2688142A5
:1010300006D29103E06203D522F4003141F01002A0
:10104000A6690027AE4213DCE16A814201D90B4652
:1010500000E0034603EB060C2369ACEB030CAC4544
:1010600006DD814201D98C4600E084469C4505D1CD
:10107000A760276042F02000A5620DE0AD1BE66985
:10108000AE1B8142A66000D90846C01A281A20600B
:101090005819606022F0200003490840E0600020F9
:1010A00084F84870ABE70000BFCFD7FFC16821F4D8
:1010B000001141F08001C160002181600160704732
:1010C0002DE9F047814614460E464FF0FF3832486E
:1010D000D5685769054209D03846A169FFF7FEFC7B
:1010E000002811DB2C48C0430540E5602B46324602
:1010F00049463846FFF7DDFCA16920F00042B21AEC
:1011000011440028A16103D02046FFF7CFFF4046DD
:10111000BDE8F08770B504460569C06A6168884219
:1011200000D80846E16821F42011E160C90312D516
:10113000A84208D02246411B2846FFF7C1FF10B144
:101140004FF0FF3070BD0020E562C4E90150E06857
:1011500020F48030E060002070BD10B50446C06807
:1011600020F02000E060A16AA06988420DD02046EE
:10117000FFF7D0FFE06820F4405040F01000E0603E
:10118000A06AA0612069E062606044F24001E0680A
:101190008843E06010BD000010000200002801D06C
:1011A00000F03CB87047000010B5014602A000F006
:1011B0007DF8012010BD0000534947525452454468
:1011C0003A2052656469726563743A2063616E27E0
:1011D00074206F70656E3A200000000010B5431C4B
:1011E00002E010F8011B71B18107FAD14FF0013212
:1011F00002C88C1A8C4314EAC211F9D0C01A0A062C
:1012000003D0C01E10BDC01A10BD0A0401D0801E3C
:1012100010BD0902FCD0401E10BD0000014918207D
:10122000ABBEFEE72600020000210160C0E901100C
:10123000704710207047034640688C46002818BF4E
:1012400088423CBF03464068F8D318681844884277
:1012500007D00CF1030020F00700001D411A521ABC
:101260000146081D0A60FFF747BC10B50146C26879
:10127000900703D0900607D5886A0AE000F03EF890
:1012800001210160881E10BD8B69486818440B69F4
:10129000C01A91F848301BB191F84910401A10BD9E
:1012A0001103FCD50028FADD401E10BD70B50546BF
:1012B0000C460A2000E06D1C00F018F835B12878C3
:1012C0000028F8D102E0641C00F010F814B1207876
:1012D0000028F8D1BDE870400A2000F007B810B52A
:1012E00000F010F8BDE81040FFF758BF08B5694698
:1012F0008DF800000320ABBE08BD00000048704719
:10130000B802002010B5012805D0002103A0FFF786
:10131000CDFF012010BD09A1F8E700005349475255
:10132000544D454D3A204F7574206F6620686561B5
:1013300070206D656D6F7279000000003A2048657D
:101340006170206D656D6F727920636F7272757058
:1013500074656400064CD4F8080140F40070C4F8C9
:10136000080104A0FFF72EF9642000F01FFEF2E749
:1013700000F00F4068656C6C6F0D0A00064CD4F8E5
:10138000040140F40070C4F8040104A0FFF71AF946
:10139000642000F00BFEF2E700F00F4068656C6C13
:1013A0006F0D0A0010B5502080F31188BFF34F8FE6
:1013B000BFF36F8F01F050FA18B104494FF080501D
:1013C0000860002080F3118810BD000004ED00E0EB
:1013D0000A48016841F4700101600948016821F080
:1013E00080410160084807494160416842F220118C
:1013F00001604FF6FF7181607047000088ED00E0EA
:1014000034EF00E020C528D90020054005480449F4
:1014100041604FF6FF7181604FF4045101607047E5
:1014200020C528D9002005408A68002A01DCFFF782
:101430008ABB521E8A604A68C0B2531C4B6010704F
:101440007047000078B50D480D490E4A0068002429
:101450006D46009091420FD00B4B00205B1A04E0C8
:1014600052F8206041F82060401CB0EB930FF7D396
:1014700055F82400016078BD026078BDB02B0000F3
:1014800000000000000000000080FF1F7CB5FFF797
:10149000BDFF1C494FF08040C1F834011A48D0F814
:1014A000141141F40071C0F81411184980154862F4
:1014B000012017494502CDE9000100232A4615A164
:1014C000174801F089F9124C0028A06003DA0146A0
:1014D00014A0FFF777F80E490520091DCDE900019A
:1014E00000232A4616A1194801F076F9A0600028C9
:1014F00003DA01460BA0FFF765F800F00BFE0020B1
:101500007CBD00000050064000F00F4000D00440B9
:10151000000000204170705461736B3100000000C6
:1015200055130000E4BBBBE58AA1E5889BE5BBBA87
:10153000E5A4B1E8B4A52C4572723A25640D0A0001
:101540004170705461736B32000000007D13000025
:101550002DE9F041184E0F460446F5683068001D2D
:1015600000F014FC38B9306890F82C100120884045
:10157000316981433161601C07D137B13168BDE801
:10158000F0410E48091D00F03DBC30682C44AC42CF
:101590004460316805D2B06BBDE8F041091D00F030
:1015A00019BC706B091D00F015FCB06A844200D2B2
:1015B000B462BDE8F08100000C0000208001002032
:1015C0002DE9F041054600F029FC2E4EB068401C84
:1015D000B06030682C4F10B1706940B32DE03560B9
:1015E000B068012829D1002404EB840007EB8000B7
:1015F00000F0E2FB641C052CF6D32348643000F0B5
:10160000DBFB2148783000F0D7FB1F488C3000F01E
:10161000D3FB1D48A03000F0CFFB1B48B43000F0D6
:10162000CBFB1948643070631430B06305E0306858
:10163000E96AC06A884200D83560706A0121401C9E
:1016400070622864E86A326981401143316100EBBD
:10165000800007EB8000291D00F0D4FB00F0FEFBAA
:10166000706900280CD03068E96AC06A884207D2E5
:1016700006494FF080500860BFF34F8FBFF36F8F64
:10168000BDE8F0810C000020CC00002004ED00E05B
:1016900010B500F0C3FB0E4C2068A0B90D4800F057
:1016A0008BFB0C48143000F087FB0A48E0601430D4
:1016B000206100220C210A2000F022FE206010B1DF
:1016C00005A100F03FFCBDE8104000F0C7BB0000E2
:1016D0004800002094010020546D72510000000069
:1016E00070B5124E124D1CE000F04CFD306820B178
:1016F000002401F0A1F9A4B901E00124F9E700F008
:101700008DFBF068C468201D00F040FBA868401EF7
:10171000A8606868401E686000F0A0FB204600F0EA
:1017200052F868680028DFD170BD00006C0100200D
:101730000C00002030B4026C0B46002A0BD0C168AC
:101740001144C1604468A14201D30168C16030BC4A
:101750001846FEF7B3BF30BC70472DE9F041856BEA
:10176000174604460026026C82B1C7B1E068FEF756
:10177000A5FFE168206C091AE1602268914202D25B
:101780006168081AE060022F16D017E02068A8B937
:10179000606801F0CBF80646002060600EE0A068AB
:1017A000FEF78CFF216CA0680844A0606168884245
:1017B00004D32068A06001E005B16D1E6D1CA56317
:1017C0003046BDE8F08110B50446006B00F05AFBCE
:1017D0002046BDE8104000F055BB000010484FF413
:1017E0000051420706D0C01D0D4920F00700411AE4
:1017F000C1F500510B4A00230144C2E90003083936
:10180000103A21F0070111604B600B600B1AC0E920
:10181000001393604FF000405360D06070470000A9
:101820000080FF1F6C000020084E4FF08054084DD0
:10183000FFF756FF3068012804D92C60BFF34F8FA3
:10184000BFF36F8F00F0B4FAF2E70000CC00002085
:1018500004ED00E02DE9F0470E46DDE90984174666
:10186000824691009946089DA522206BFEF76BFFEA
:101870006FF00301206B01EB8701084420F007079C
:10188000780707D0502080F31188BFF34F8FBFF344
:101890006F8FFEE72218315C82F83410315C11B191
:1018A000401C0A28F6D3002684F83D60052D00D39D
:1018B0000425E562C4E91256201D00F088FA04F1FF
:1018C000180000F084FA2461C5F105006462A0618B
:1018D000266584F854604A465146384600F040FA7E
:1018E0002060B8F1000F01D0C8F80040BDE8F087D3
:1018F00030B5114900E011460A688242FBD34B68BB
:101900005C18844203D14068184448600846436824
:101910001C18944209D1084C103C2468A24209D0FA
:1019200052681A4442600A6812680260814200D01C
:10193000086030BD0460F9E76C00002070B5002439
:1019400041600B4D0061914206D8D11A82699142E3
:1019500006D2011D286907E09A4203D2994201D3B9
:10196000012403E0011DE86800F034FA204670BD50
:101970004800002010B5044600F050FAA06B20B1DA
:10198000002400F06BFA204610BD0124F9E70000A6
:1019900030B585B02B4D4BE00198002848DB039C07
:1019A000606910B1201D00F0F1F904A800F0B6F84C
:1019B000024601980A283BD2DFE800F00505053A07
:1019C000263705053A260298A169034601442046B8
:1019D000FFF7B4FF00B3616A20468847E069012839
:1019E00026D1002000900298A169002342181946D0
:1019F000204601F0A9F878B9502080F31188BFF390
:101A00004F8FBFF36F8FFEE70298A06128B1811856
:101A100013462046FFF792FF0AE0502080F311881A
:101A2000BFF34F8FBFF36F8FFEE7204600F02AFA17
:101A300000231A4601A9286800F08CFC0028ABD1CD
:101A400005B030BD480000202DE9FC410E4605469A
:101A500000F098FB01A800F061F80446019818B165
:101A600000F0EAFFBDE8FC81224FAEB138690068A2
:101A7000A8B30026291B3246386800F075FA00F03A
:101A8000DBFF0028EED11C494FF080500860BFF307
:101A90004F8FBFF36F8FE5E7A542EBD800F0CCFF87
:101AA000F8682646C068C468201D00F06FF9E06938
:101AB000012810D1A0692B46411932462046FFF774
:101AC0003DFF40B100200346014600902A462046D3
:101AD00001F03AF820B1616A20468847C2E707E082
:101AE000502080F31188BFF34F8FBFF36F8FFEE755
:101AF0000126BFE74800002004ED00E00648416BE6
:101B0000096829B1416BC968C96849688162704731
:101B10004FF0FF31FAE700000C00002070B50546D9
:101B200000F094FE064E0446B068844203D200F0F2
:101B300009F8012000E0002028602046B46070BD54
:101B400048000020F8B5194E1FE0C068C468056859
:101B5000201D00F01BF9616A20468847E0690128D2
:101B600013D1A0692844A84206D924616060211DD0
:101B7000F06800F02FF908E00020034601460090CD
:101B80002A46204600F0E0FF38B1F06801680029DD
:101B9000DBD13169C6E90310F8BD502080F311880C
:101BA000BFF34F8FBFF36F8FFEE7000048000020A8
:101BB00008484068401C4FF0500080F3118804D062
:101BC000BFF34F8FBFF36F8FFEE7BFF34F8FBFF3AE
:101BD0006F8FFEE774000020084CE068016839B19F
:101BE000002139B10020FFF72FFFFFF7D1FEF4E706
:101BF0000121F6E7C0680068F5E700004800002012
:101C00002DE9F041044600F009F994F9455004F13A
:101C1000240609E0606A48B1304600F0D3FE08B1FE
:101C200000F0EAF96D1E6DB2002DF3DC4FF0FF36C7
:101C300084F8456000F012F900F0F0F894F944508F
:101C400004F1100709E0206948B1384600F0BAFEF7
:101C500008B100F0D1F96D1E6DB2002DF3DC84F8EF
:101C60004460BDE8F04100F0F9B800002DE9F04112
:101C70000546002600F086FA324F386808B9FFF7AB
:101C8000ADFDF86805424BD1C5B3083568070ED0E5
:101C900005F00700C0F108000544680707D0502090
:101CA00080F31188BFF34F8FBFF36F8FFEE72DB323
:101CB0007868854234D8234910310846046801E029
:101CC000214604466068A84202D220680028F7D165
:101CD0003868844224D00E6820680860606808363E
:101CE000411B10290FD96019420708D0502080F3FA
:101CF0001188BFF34F8FBFF36F8FFEE710E0416095
:101D00006560FFF7F5FD61687868401A7860BA6829
:101D1000904200D2B860F86801430020C4E9000195
:101D200000F08AFE0EB900F044F8700707D050208A
:101D300080F31188BFF34F8FBFF36F8FFEE73046FC
:101D4000BDE8F0815C0000200449086818B108680B
:101D5000C26C521CC2640868704700000C0000206E
:101D600010B5031F4FF080741C601B1F21F0010190
:101D70001960191F044B0B6014390A60091F6FF0BA
:101D8000020244380A6010BDB11B0000D0E90132E4
:101D900001699A60D0E901235A604A68824201D100
:101DA00082684A60002202610868401E086070472D
:101DB000704770477047704700F108014FF0FF32DD
:101DC000C0E90112C160016100210160704700217A
:101DD0000161704730B50C68621C02D000F1080246
:101DE00002E0026904E01A4653681D68A542FAD968
:101DF00053684B6099608A60516008610168491CB2
:101E0000016030BD42684A6093688B609368596096
:101E1000916008610168491C01607047502080F39F
:101E20001188BFF34F8FBFF36F8F0A494868401C7A
:101E3000486001280CD10848006810F0FF0F07D057
:101E4000502080F31188BFF34F8FBFF36F8FFEE7F1
:101E5000704700007400002004ED00E00849486865
:101E600028B1401E486001D180F31188704750208E
:101E700080F31188BFF34F8FBFF36F8FFEE7000031
:101E80007400002070B5002827D0144DA0F108047C
:101E90006068E968084207D1502080F31188BFF3D9
:101EA0004F8FBFF36F8FFEE722683AB1502080F367
:101EB0001188BFF34F8FBFF36F8FFEE788436060D9
:101EC00000F060F960686968084468602046FFF7C0
:101ED0000FFDBDE8704000F0AFBD70BD5C0000209C
:101EE0004FF0E0204BF67F314161072101617047DF
:101EF00010B5FEF747FB114910280ED300F1E02082
:101F000090F8F0030A78904207D2502080F31188AD
:101F1000BFF34F8FBFF36F8FFEE7094800688968F2
:101F200000F4E060884207D9502080F31188BFF3A5
:101F30004F8FBFF36F8FFEE710BD000074000020CD
:101F40000CED00E010B5074B002253F832401CB1F5
:101F5000521C082AF9D310BD43F8321003EBC2011A
:101F6000486010BD8C00002070B515460E46044632
:101F7000FFF754FF94F944100020491C01D184F864
:101F8000440094F94510491C01D184F84500FFF73D
:101F900065FFA06B28B92A46314604F1240000F001
:101FA00049F82046BDE87040FFF72ABE10B5020090
:101FB00014D00F48006B38B1502080F31188BFF364
:101FC0004F8FBFF36F8FFEE700F0DCF80021104663
:101FD000FFF7BEFA00F030FD002807D105494FF0A9
:101FE00080500860BFF34F8FBFF36F8F10BD0000AC
:101FF0000C00002004ED00E001490120C861704799
:102000000C00002010B50C4650B109490968183180
:10201000FFF7E0FE2046BDE810400121FFF798BA27
:10202000502080F31188BFF34F8FBFF36F8FFEE70F
:102030000C00002070B514460D4668B10A490968C5
:102040001831FFF7DFFE0CB14FF0FF35214628466F
:10205000BDE87040FFF77CBA502080F31188BFF3D1
:102060004F8FBFF36F8FFEE70C00002070B50400A8
:1020700039D01D4DE06A2968C96A884233D2A06907
:10208000002804DB2868C06AC0F10500A061E06A8E
:10209000164E00EB8000616906EB800081421FD183
:1020A000201DFFF773FE012150B9E06A00EB8002AA
:1020B00056F8222022B92A6901FA00F082432A61E7
:1020C0002868C06AE0622A6981401143296100EBF7
:1020D000800006EB8000211DBDE87040FFF792BE36
:1020E0002868C06AE06270BD0C000020CC000020AF
:1020F00028B107490A6A0260C968416070475020E8
:1021000080F31188BFF34F8FBFF36F8FFEE700009E
:102110000C0000201CB517480024CDE900402346E0
:10212000822215A1164800F057FB012803D100F0C8
:10213000E5FC012809D0401C1AD1502080F31188F9
:10214000BFF34F8FBFF36F8FFEE7502080F31188EE
:10215000BFF34F8FBFF36F8F06484FF0FF312C381E
:10216000816201214161C460BDE81C4000F056B8A5
:102170001CBD00003800002049444C450000000010
:10218000291800000248016B491C016370470000D8
:102190000C00002010B51F4C206B10B10120E06135
:1021A00010BD0020E06120684FF0A532006B01688F
:1021B000914208D14168914205D18168914202D192
:1021C000C068904204D0216820683431FFF7F2FDE6
:1021D00020691149B0FA80F0C0F11F0000EB8000C7
:1021E00051F820206AB101EB800000F1080241683B
:1021F00049684160914201D149684160C8682060E6
:1022000010BD502080F31188BFF34F8FBFF36F8F45
:10221000FEE700000C000020CC0000201CB5334875
:102220000168334A914207D1502080F31188BFF3EF
:102230004F8FBFF36F8FFEE700682D49491E88421C
:1022400007D1502080F31188BFF34F8FBFF36F8FFA
:10225000FEE7284908780190FF20087008788DF87B
:1022600000009DF800009DF8002000F0F000904272
:1022700007D0502080F31188BFF34F8FBFF36F8FCB
:10228000FEE79DF800001C4A00F050001070072087
:10229000906007E09068401E90609DF8000040004C
:1022A0008DF800009DF800000006F3D4107A0002BB
:1022B00000F4E0609060019808700C4820300168DC
:1022C00041F470010160016841F070410160FFF765
:1022D00007FE00205060FEF71DF90848016841F034
:1022E00040410160FEF706F900201CBD00ED00E052
:1022F00071C20F4100E400E07400002034EF00E000
:102300002DE9F04117460E46050016D0EEB105FB4B
:1023100006F05030FFF7AAFC04000CD004F1500086
:10232000AEB12060C4E90F562046012100F0CAF882
:10233000204684F84C70BDE8F081502080F311886D
:10234000BFF34F8FBFF36F8FFEE70020E1E72460FC
:10235000E8E700002DE9FF4F83B09B468A46040062
:102360004FF0000603D0BAF1000F08D011E0502062
:1023700080F31188BFF34F8FBFF36F8FFEE7206CA0
:1023800038B1502080F31188BFF34F8FBFF36F8FA8
:10239000FEE700F04DFADFF828814FF000094FF01A
:1023A000805748B9059838B1502080F31188BFF3A1
:1023B0004F8FBFF36F8FFEE7FFF730FDA56B45B37F
:1023C00051462046E668FFF7B5F9BBF1000F13D080
:1023D000E660606A50B104F1240000F0F3FA28B11D
:1023E000C8F80070BFF34F8FBFF36F8FFFF736FD54
:1023F000012007B0BDE8F08F6D1EA563206810B9FD
:10240000FFF7A2FC606020690028EFD004F1100003
:10241000E3E7059808B11EB106E0FFF71FFD27E0CE
:102420006846FFF765FE0126FFF718FDFFF7AAFED5
:10243000FFF7F4FC94F94400401C01D184F8449067
:1024400094F94500401C01D184F84590FFF706FD42
:1024500005A9684600F08AF9002820460AD0FFF74F
:10246000CFFB00F0E9FA2046FFF784FA0028A3D05A
:102470000020BEE7FFF77EFAD8B1206830B9FFF739
:10248000CDFC6068FFF7F2FDFFF7E8FC04F12400E3
:102490000599FFF7B7FD2046FFF7B2FB00F0CCFA35
:1024A000002889D1C8F80070BFF34F8FBFF36F8F3A
:1024B00082E72046FFF7A4FB00F0BEFA7CE70000AD
:1024C00004ED00E070B50D46040025D0FFF7A6FC32
:1024D000D4E90F20216802FB001161600021A16393
:1024E0002168A1600A46D4E90F01401E00FB0121CA
:1024F000E16021464FF0FF3001F8440F487004F1CD
:1025000010008DB1FFF758FC04F12400FFF754FCD4
:10251000FFF7A4FC012070BD502080F31188BFF3A9
:102520004F8FBFF36F8FFEE721690029F0D000F0D5
:1025300049FA0028ECD004494FF080500860BFF3FE
:102540004F8FBFF36F8FE3E704ED00E02DE9FF4FFE
:1025500083B01F468B4604004FF0000603D0BBF14A
:10256000000F08D011E0502080F31188BFF34F8F87
:10257000BFF36F8FFEE7206C38B1502080F31188D5
:10258000BFF34F8FBFF36F8FFEE7022F0AD1E06BCF
:10259000012807D0502080F31188BFF34F8FBFF37D
:1025A0006F8FFEE700F044F9DFF800914FF0000A6A
:1025B0004FF0805848B9059838B1502080F3118801
:1025C000BFF34F8FBFF36F8FFEE7FFF727FCA06BC2
:1025D000E16B884205D3022F03D00598C8B1DEB164
:1025E0001EE03A4659462046FFF7B7F8616A19B12E
:1025F00004F1240000F0E6F928B1C9F80080BFF327
:102600004F8FBFF36F8FFFF729FC012007B0BDE8A4
:10261000F08FFFF723FC21E06846FFF769FD0126F4
:10262000FFF71CFCFFF7AEFDFFF7F8FB94F9440041
:10263000401C01D184F844A094F94500401C01D10C
:1026400084F845A0FFF70AFC05A9684600F08EF85B
:1026500030B12046FFF7D4FA00F0EEF90020D5E7BC
:10266000FFF7DCFBA06BE16B884201D1012500E0A4
:102670000025FFF7F3FB95B104F110000599FFF772
:10268000C1FC2046FFF7BCFA00F0D6F900289CD127
:10269000C9F80080BFF34F8FBFF36F8F95E72046D7
:1026A000FFF7AEFA00F0C8F98FE7000004ED00E094
:1026B0002DE9F0471F4690468946040003D0B9F142
:1026C000000F08D011E0502080F31188BFF34F8F26
:1026D000BFF36F8FFEE7206C38B1502080F3118874
:1026E000BFF34F8FBFF36F8FFEE7022F0AD1E06B6E
:1026F000012807D0502080F31188BFF34F8FBFF31C
:102700006F8FFEE7FFF7F4FB5020EFF3118680F3A5
:102710001188BFF34F8FBFF36F8FA06BE16B8842BF
:1027200006D3022F04D0002086F31188BDE8F0877D
:1027300094F945503A4649462046FFF70EF8681C82
:1027400004D06D1C84F845500120EDE7606A002834
:10275000FAD004F1240000F035F90028F4D0B8F1E3
:10276000000FF1D00121C8F80010EDE770B50D465B
:10277000040019D005B3FFF751FB164AD068296849
:102780004B1C0FD02368126A934202D062688242C7
:102790001AD96268801A884216D2081A2860204620
:1027A000FFF7A6FC002410E0502080F31188BFF34F
:1027B0004F8FBFF36F8FFEE7502080F31188BFF378
:1027C0004F8FBFF36F8FFEE70124FFF747FB2046D3
:1027D00070BD00000C0000202DE9FF5F8346DDE99D
:1027E0000E87994616468A469000FFF73FFA050085
:1027F0001AD05820FFF73AFA040012D025630021BE
:10280000CDE90241CDE900874B4632465146584654
:10281000FFF720F82046FEF7D3FE012004B0BDE804
:10282000F09F2846FFF72EFB4FF0FF30F6E7000041
:102830000548416919B1006B18B1002070470120AB
:1028400070470220704700000C0000200148C0685B
:10285000704700000C0000202DE9F041314F0026A8
:10286000386B18B1B869401CB86152E0FD686D1C46
:10287000FD6013D1786B006838B1502080F3118867
:10288000BFF34F8FBFF36F8FFEE7786BB96B796340
:10289000B863386A401C3862FFF730F9B86ADFF86D
:1028A0008880854209D3786B006890B1786BC068E6
:1028B000C468606885420FD2B8623868C06A00EBAD
:1028C000800158F82100012800D90126B86900B319
:1028D00021E04FF0FF30EFE7201DFFF757FAA06A25
:1028E00018B104F11800FFF751FAE06A01213A69C2
:1028F00081401143396100EB800108EB8100211D0B
:10290000FFF780FAE06A3968C96A8842CBD30126AA
:10291000C9E7FFF750FAF86900B101263046BDE873
:10292000F08100000C000020CC00002070B50400F5
:102930004FF0000041D0214D29688C4207D0502033
:1029400080F31188BFF34F8FBFF36F8FFEE7E16C09
:1029500071B1491EE164A36CE26A9A422DD000294C
:102960002BD1201DFFF712FA1549012240B112E0C8
:10297000502080F31188BFF34F8FBFF36F8FFEE7B6
:10298000E06A00EB800351F8233023B92B6902FA87
:1029900000F083432B61A06CE062C0F10500A061F0
:1029A000E06A2B6982401A432A6100EB800001EB48
:1029B0008000211DFFF726FA012070BD0C000020C9
:1029C000CC0000202DE9F041C068C468ACB104F12E
:1029D00018000746FFF7DAF9154D286B0126A0B15C
:1029E00039461448FFF70EFAE06A2968C96A884236
:1029F0001CD90120EE61BDE8F081502080F31188E0
:102A0000BFF34F8FBFF36F8FFEE7201DFFF7BEF9B7
:102A1000E06A2A6906FA00F111432961054900EBD1
:102A200080008C3901EB8000211DDBE70020E2E70C
:102A30000C000020580100202DE9F0472C4D002407
:102A40002746286B38B1FFF7E9F9286B401E286349
:102A5000286B40B146E0502080F31188BFF34F8FC0
:102A6000BFF36F8FFEE7A86822490126D0B3A1F11A
:102A70008C098846D8F80010E9B1D8F80C00C46871
:102A800004F11800FFF782F9201DFFF77FF9E06AD3
:102A90002A6906FA00F11143296100EB800109EB74
:102AA0008100211DFFF7AEF9E06A2968C96A8842F2
:102AB000E0D3EE61DEE70CB1FFF720F8AC693CB182
:102AC000FFF7CAFE00B1EE61641EF9D10020A861D3
:102AD000E86938B10849012738070860BFF34F8F0C
:102AE000BFF36F8FFFF7BAF93846BDE8F0870000F3
:102AF0000C0000205801002004ED00E01CB5FEF79A
:102B0000C7FD0D48006868B10B490220091DCDE9D9
:102B1000000100234FF4827208A10A48FFF75CFE0F
:102B2000002807D1502080F31188BFF34F8FBFF3E7
:102B30006F8FFEE71CBD000048000020546D72201E
:102B400053766300D91B0000FEB51F460300089EA4
:102B50004FF0000013D0124D2C68002C0ED08DE8E1
:102B60000E00062915DAFFF763FE02284FF0000376
:102B70000DD0002269462868FFF7E8FCFEBD502012
:102B800080F31188BFF34F8FBFF36F8FFEE732469C
:102B9000F0E700233A4669462046FFF789FDFEBD6F
:102BA000480000204FF04070E1EE100A704700002E
:102BB00008ED00E03A7474003A7474003A747400DA
:102BC000F02B0000000000208C0000004C040000EE
:102BD000F02B00000080FF1F0020000068040000B0
:102BE0007C2C00008C0000208C0200006804000097
:102BF00000000000000000000000000000000000D5
:102C000000000000000000000000000000000000C4
:102C100000000000000000000000000000000000B4
:102C200000000000000000000000000000000000A4
:102C30000000000000000000000000000000000094
:102C40000000000000000000000000000000000084
:102C50000000000000000000000000000000000074
:102C60000000000000000000AAAAAAAA00000000BC
:0C2C700000000000000000000000000058
:0400000500000411E2
:00000001FF
